:020000040800F2
:1000000060040024AD020008431200081312000827
:100010004112000821030008C51400080000000078
:10002000000000000000000000000000471200086F
:1000300023030008000000004512000849120008D0
:10004000CB020008CB020008CB020008CB0200085C
:10005000CB020008CB020008CB020008CB0200084C
:10006000CB020008CB020008CB020008CB0200083C
:10007000CB020008CB020008CB020008CB0200082C
:10008000CB020008CB020008CB020008CB0200081C
:10009000CB020008CB020008CB020008CB0200080C
:1000A000CB020008CB020008CB020008CB020008FC
:1000B000CB020008CB020008CB020008CB020008EC
:1000C000CB020008CB020008CB020008CB020008DC
:1000D000CB020008CB020008CB020008CB020008CC
:1000E000CB020008CB02000800000000CB02000891
:1000F000CB020008CB020008CB020008CB020008AC
:10010000CB020008CB020008CB020008CB0200089B
:10011000CB020008CB020008ED130008CB02000858
:10012000CB020008CB020008CB020008CB0200087B
:10013000CB020008CB020008CB020008CB0200086B
:1001400000000000000000000000000000000000AF
:10015000CB020008CB020008CB020008CB0200084B
:10016000CB020008CB020008CB020008CB0200083B
:10017000CB020008CB020008CB0200080000000000
:10018000CB020008CB020008CB020008CB0200081B
:10019000CB020008CB020008CB020008CB0200080B
:1001A000CB020008CB020008CB020008CB020008FB
:1001B000CB020008CB020008CB020008CB020008EB
:1001C000CB020008CB020008CB020008CB020008DB
:1001D000CB020008CB020008CB020008CB020008CB
:1001E000CB020008CB020008CB020008CB020008BB
:1001F000CB020008CB020008CB020008CB020008AB
:10020000CB020008CB020008CB020008CB0200089A
:10021000CB020008CB020008CB020008CB0200088A
:10022000CB020008CB020008CB020008000000004F
:10023000CB020008CB02000800000000CB0200083F
:10024000CB020008CB020008CB020008CB0200085A
:10025000CB020008CB020008CB020008CB0200084A
:10026000CB020008CB020008CB020008CB0200083A
:10027000CB020008CB020008CB02000800000000FF
:10028000CB020008CB020008CB02000800000000EF
:1002900000000000CB020008DFF80CD000F02EF8C0
:1002A00000480047091500086004002407488047FB
:1002B0000748804707480047FEE7FEE7FEE7FEE7FE
:1002C000FEE7FEE7FEE7FEE7FEE7FEE725030008A0
:1002D000F512000899020008D2B201E000F8012BE3
:1002E000491EFBD270470022F6E710B513460A46B6
:1002F00004461946FFF7F0FF204610BD064C074D97
:1003000006E0E06840F0010394E8070098471034E5
:10031000AC42F6D3FFF7C4FFF4150008141600082A
:10032000FEE77047054805490839026842F00202B5
:10033000026008688004FCD5704700000C48025831
:1003400001480068000C70470010005C014880689C
:1003500070470000000000240248816802781144C0
:100360008160704700000024032010B500F0FAF807
:1003700000F0C4FA0F4A104914681368C4F303224A
:1003800003F00F038A5CC95C02F01F0201F01F0139
:10039000D0400A4A20FA01F11160094908600F2093
:1003A00000F010F808B1012010BD00F09FF8002007
:1003B00010BD000018440258E41500081000002485
:1003C0000C00002410B5102804468AB02CD200225C
:1003D0000146362000F0A6F8362000F095F81748C0
:1003E00004601748016841F010010160006809A924
:1003F00000F010000890684600F01EFA0598B0B1B1
:1004000000F06AFA40000F4900220F4CB0FBF1F1F6
:100410000E4840F2E7330460C0E90332491EC0E9E8
:10042000011200F0CBFD28B101200AB010BD00F090
:1004300053FAE8E7054800F0F3FDF6E7040000246E
:10044000E844025840420F0000100040140000240D
:10045000154BF0B5083B427813491A600B680A1F28
:1004600023F001030B6043681360057BC67A827A30
:10047000437B2D07847B45EA0665C77B90F809C05E
:10048000067A90F800E045EAC24040EA834040EA3C
:10049000444040EA074040EA0C2040EA460040EA77
:1004A0000E000860F0BD0000A0ED00E0BFF35F8F1C
:1004B000044800210368034A23F480330360703248
:1004C0001160704724ED00E0074A40F00100064942
:1004D00070321060086840F480300860BFF34F8FBE
:1004E000BFF36F8F7047000024ED00E0054808B5AA
:1004F000016841F002010160006800F00200009014
:1005000008BD0000F4440258002809DB410900F04E
:100510001F028900012001F1E0219040C1F8000193
:10052000704700000E4BF0B41B680D46C3F3022366
:10053000C3F10706042E00D90426191D072901D28C
:10054000002300E0DB1E012404FA06F19C40491E52
:100550002940641E994014402143F0BC00F0B3BF11
:100560000CED00E0064900F0070210B54FF6FF045D
:100570000868044B204040EA02201843086010BD80
:100580000CED00E00000FA05134970B50A68D2438B
:10059000520705D5096801F00701814213D118E01F
:1005A0000A6822F0070202430A60FFF7CFFE0A4DF5
:1005B0004FF47A760446083D07E000BFFFF7C6FE19
:1005C000001BB04201D9012070BD2868C0438004DF
:1005D000F4D4002070BD00000C4802582DE9F05FF3
:1005E00004000F467ED0DFF83882D8F8000000F013
:1005F0000F00B8420CD2D8F8001021F00F01394397
:10060000C8F80010D8F8000000F00F00B84269D117
:100610002078844D40070AD52069296801F07001CF
:10062000884204D9296821F07001014329602078AB
:100630007C4E361D00070AD56069316801F07001F3
:10064000884204D9316821F070010143316020787B
:10065000C0060AD5A069316801F4E061884204D976
:10066000316821F4E061014331602078DFF8B4B1F2
:1006700080060BF1080B0CD5E1695846DBF8002029
:1006800002F07002914204D9026822F070020A431B
:100690000260207880070AD5E068296801F00F0120
:1006A000884204D9296821F00F010143296020788C
:1006B000C0073ED05B49A2682868183920F47060F2
:1006C000104328606068022818D0032819D00968F0
:1006D000012819D0490700294ADADFF848A1AAF110
:1006E000080A00E044E0DAF8002022F007020243A2
:1006F000CAF80020FFF72AFE814612E00968890344
:10070000E9E709688901E6E7C905E4E7FFF71EFEA6
:10071000A0EB090141F28830814202D90320BDE8F3
:10072000F09F6168DAF8000000F03800B0EBC10F0C
:10073000ECD1207880070AD5E068296801F00F0124
:10074000884204D2296821F00F0101432960D8F8BA
:100750000010404601F00F01B9420BD9016821F0A9
:100760000F0139430160006800F00F00B84201D06A
:100770000120D4E7207840070AD52069296801F0D4
:100780007001884204D2296821F070010143296078
:10079000207800070AD56069316801F0700188424D
:1007A00004D2316821F07001014331602078C00625
:1007B0000AD5A069316801F4E061884204D2316849
:1007C00021F4E06101433160207880060CD5E169B5
:1007D0005846DBF8002002F07002914204D2026811
:1007E00022F070020A43026000F088F80E492A687D
:1007F0002B68C2F3032203F00F038A5CC95C02F08A
:100800001F0201F01F01D040084A20FA01F11160D7
:100810000749086007480068BDE8F05FFFF7D2BDF0
:100820000020005218440258E4150008100000246B
:100830000C0000240400002470B5144C3F22026018
:10084000124A24680832131D114D04F00704446055
:1008500016681C1D06F470668660166806F00F06A2
:10086000C660126802F0700202611A6802F070023B
:1008700042611A6802F4E0628261226802F070024A
:10088000C261286800F00F00086070BD1044025873
:100890000020005230B500F031F80B4A0B490C4BE8
:1008A00015681468C5F3032204F00F048A5C095D1F
:1008B00002F01F0201F01F01D040064A20FA01F1A8
:1008C00019601060084630BD18440258E41500084D
:1008D000100000240C00002400B5FFF7DBFF0549E1
:1008E0000968054AC1F30211515C01F01F01C840BB
:1008F00000BD00001C440258E4150008454970B5CD
:1009000045480968434B103B11F0380208D00111EB
:10091000082A03D0102A0BD0182A0BD0084670BD25
:1009200019688906FBD51968C1F3C101C84070BDBB
:100930003A4870BD3749374D18310C1D24350A68C7
:10094000096826682D6802F0030406F00102C1F36D
:100950000511C5F3CC0515FB02F200EE102AB8EE26
:10096000400AE9B32F4ADFED2E0AB7EE001A6CB148
:10097000DFED2D1A012C01D0022C43D002EE101A0B
:100980001068F8EE422A81EEA22A1EE01C68A40636
:1009900011D51B6801EE901A1168C3F3C103F8EE7C
:1009A000612AD84001EE900AC1F30800F8EE611AFE
:1009B00081EEA22A0BE001EE901ADFED1C2A00BFA7
:1009C000F8EE611A106882EEA12AC0F3080001EE69
:1009D000900AF8EE611A40EE201A31EE810A00E02A
:1009E00015E022EE000A1068C0F34620401C00EE1D
:1009F000900AF8EE600A80EE201ABCEEC10A10EEF2
:100A0000100A70BD01EE901ADFED092AD8E7002028
:100A100070BD0000104402580090D00340787D0162
:100A200000000039304402580024744A0024744CF9
:100A300020BCBE4B2DE9F05F04007DD0FF4F207835
:100A4000FE4D1837DFF8F493103DC00748D0D9F8B1
:100A50000000396800F03800102815D0182803D19C
:100A600001F0030002280FD06068B0F5803F12D07B
:100A700010B1B0F5A02F18D0286820F4803028607D
:100A8000286820F4802009E02868800328D5606861
:100A90000028D2D024E0286840F4803028606068C4
:100AA00088B1FFF753FC064609E0286840F480202F
:100AB0002860F0E7FFF74AFC801B64286FD828689D
:100AC0008003F7D50CE0FFF741FC064605E000BFC8
:100AD000FFF73CFC801B6428F0D828688003F7D41B
:100AE000207841F20308D54E0C3E800769D5D9F82D
:100AF0000000396810F038000ED0182801D188079E
:100B00000AD0E06890B3296821F0190101432960F7
:100B1000FFF71CFC824631E02868400702D5E068F8
:100B200000288AD0E168286820F01900084328606E
:100B3000FFF70CFC824607E0DFE000BFFFF706FC92
:100B4000A0EB0A000228B9D828684007F6D500BFF4
:100B5000FFF7F6FB40451BD82069402812D03168CA
:100B600021F47C3141EA003030602AE018E000BF17
:100B7000FFF7ECFBA0EB0A0002289FD8286840078B
:100B8000F6D5E5E7306820F47C3040F40030EBE740
:100B9000207C316821F0FE4141EA0060E4E70DE18C
:100BA000286820F001002860FFF7D0FB824605E0AE
:100BB000FFF7CCFBA0EB0A0002288DD8286840077D
:100BC000F6D42078C0065DD5D9F80000DFF86CB205
:100BD000396800F03800ABF1040B082810D0182851
:100BE00003D101F0030001280AD0E0690028286839
:100BF00038D040F080002860FFF7A8FB824623E051
:100C00002868C00523D5E069802876D11FE0206AD6
:100C1000202821D0316821F0F84141EA806030601D
:100C200030E000BF94F82010DBF8002022F07C5266
:100C300042EA0161CBF8001024E000BFFFF786FB19
:100C4000A0EB0A00022898D82868C005F6D5FFF75F
:100C500077FB4045E6D8DAE7306820F0F84040F00E
:100C60008040DCE720F080002860FFF76FFB06463D
:100C700005E000BFFFF76AFB801B02289DD82868AB
:100C8000C005F7D42078000729D56C486169643025
:100C900000298046016811D041F001010160FFF791
:100CA00055FB064605E000BFFFF750FB801B0228FE
:100CB000C9D8D8F800008007F6D510E021F001016E
:100CC0000160FFF743FB064605E000BFFFF73EFB70
:100CD000801B022872D8D8F800008007F6D420784C
:100CE000800623D5A0690028286810D040F48050E1
:100CF0002860FFF72BFB064605E036E1FFF726FBF1
:100D0000801B02285AD828688004F7D50EE020F40A
:100D100080502860FFF71AFB064604E0FFF716FB39
:100D2000801B02284AD828688004F7D4207840071E
:100D30004FD5DFF80C81D8F8001041F48071C8F865
:100D40000010FFF703FB064605E000BFFFF7FEFAC1
:100D5000801B642832D8D8F80000C005F6D5374E7D
:100D6000A068603601280AD008B1052813D0306881
:100D700020F001003060306820F0040002E03068AC
:100D800040F001003060A06841F2883A90B1FFF76E
:100D9000DDFA80460AE0306840F004003060EEE79B
:100DA000FFF7D4FAA0EB0801514507D83068800757
:100DB000F6D50EE0FFF7CAFA804607E084E000BFF0
:100DC000FFF7C4FAA0EB080151457DD830688007D1
:100DD000F6D4606AB0B3DFF86480D9F8001008F187
:100DE00020084FF6F87B08F10409C1F3C20103297A
:100DF000A8F1040A69D00228286820F080702860D1
:100E000003D0FFF7A3FA044684E0FFF79FFA0646F3
:100E100005E000BFFFF79AFA801B022877D8286800
:100E20008001F7D4E26A40F2F331386854F8283F81
:100E3000884340EA02101843386004E01044025826
:100E400000480258B5E0217B434622894FF4FE0C4E
:100E5000208A4FF0FE474902267D521E401EA1F512
:100E60000071C2F308088AB2761E0CEA004042EA1A
:100E700008020243504607EA06610A431A60DAF89C
:100E8000002022F00102CAF80020D9F80020266ACA
:100E900022EA0B0242EAC602C9F80020DAF8001082
:100EA000A26921F00C011143CAF800100168E2693F
:100EB00021F0020111430160016841F480310160B9
:100EC000016841F4003101E021E027E001600168A0
:100ED00041F480210160016841F00101016028684E
:100EE00040F080702860FFF731FA044605E000BF4B
:100EF000FFF72CFA001B022809D828688001F7D5D3
:100F000057E000BFFFF722FA001B022802D9032096
:100F1000BDE8F09F28688001F4D44AE039680128D0
:100F2000D8F8000021D0A26A01F0030393421CD13B
:100F3000E26AC1F305118A4217D1216BC0F308029E
:100F4000491E8A4211D1616BC0F34622491E91426B
:100F50000BD1A16BC0F30642491E914205D1E16B52
:100F6000C0F30660491E814201D00120D0E7A16C88
:100F70004E46D9F80000C0F3CC00814219D0DAF80F
:100F80000000554620F00100CAF80000FFF7DEF926
:100F90004FEA0007FFF7DAF9B842FBD0A26C3068DD
:100FA00020EA0B0040EAC2003060286840F00100EF
:100FB00028600020ACE770477047704710B5040008
:100FC00003D094F83D0010B107E0012010BD0020CF
:100FD00084F83C00204600F022F8022084F83D000E
:100FE0002068211D00F008FA012084F8480084F8E8
:100FF0003E0084F83F0084F8400084F8410084F803
:10100000420084F8430084F8440084F8450084F8E2
:10101000460084F8470084F83D00002010BD70476A
:1010200090F83D10012901D001207047174A022194
:1010300080F83D100168CB6843F00103CB60006885
:10104000904214D0B0F1804F11D0114988420ED097
:10105000104988420BD01049884208D00F49884275
:1010600005D00F49884202D00E49884207D18168D5
:101070000D4A1140062906D0B1F5803F03D0016822
:1010800041F00101016000207047000000000140B4
:101090000004004000080040000C00400004014033
:1010A00000180040004001400700010070472DE992
:1010B000F041044600680027C6680569A90713D5F2
:1010C000B10711D5FA1E02610121217720688069DC
:1010D0008007204602D0FFF7E9FF04E000F08BF81C
:1010E000204600F089F82777680716D5700714D5D1
:1010F000226802206FF00401116120772068806966
:1011000010F4407F204602D0FFF7D0FF04E000F04B
:1011100072F8204600F070F82777280715D53007B9
:1011200013D5226804206FF0080111612077206830
:10113000C0698007204602D0FFF7B8FF04E000F046
:101140005AF8204600F058F82777E80616D5F0063A
:1011500014D5226808206FF01001116120772068F3
:10116000C06910F4407F204602D0FFF79FFF04E0E3
:1011700000F041F8204600F03FF82777E80708D054
:10118000F00706D021686FF001000861204600F0EA
:1011900035F8280601D4A80408D5300606D52168FC
:1011A0006FF4025008612046FFF706FFE80508D5F6
:1011B000300606D521686FF4807008612046FFF77D
:1011C000FAFE680608D5700606D521686FF0400063
:1011D0000861204600F01CF8A8060AD5B00608D51C
:1011E00021686FF0200008612046BDE8F041FFF75C
:1011F000E4BEBDE8F0817047704700000068034915
:10120000884201D1FFF7A8B87047000000100040E5
:101210007047FEE7094808B5016841F080010160A8
:10122000016801F080010091016841F00101016055
:10123000006800F00100009008BD0000E044025882
:10124000FEE7FEE7704770477047000070B59CB03E
:101250004C216846FFF747F8202113A8FFF743F811
:101260000220FFF791F9214800242149026842F445
:101270004042026002680A6842F001020A6009689E
:1012800001F001011B9101688904FCD50DF1280CC6
:10129000022009900521C0268CE84300CDE90D010C
:1012A000C3030F900825684601221294CDE910541B
:1012B000CDE90023FFF7BEFB08B172B6FEE7402080
:1012C0001A903F210301CDE916500322CDE91803FE
:1012D00013AB13A883E816000421FFF77FF9002859
:1012E00001D072B6FEE71CB070BD0000184802586D
:1012F0002C0400583348F0B5334A016841F47001BA
:101300000160106800F00F00072804D2106820F078
:101310000F00C01D10602D4900202C4C10340B68AC
:101320002B4D43F001030B6020600B682B400B60DA
:10133000136803F00F03072B04D9136823F00F037E
:10134000DB1D1360214C234A1834234B261D371D07
:1013500020601E4C214D28343060261D3860371D1A
:1013600023603B1D35601C1D3A60251D2E1D186035
:10137000331D22602860326018600A68134B184CD5
:1013800022F4802260330A60186020686FF30F0037
:10139000B0F1005F03D213490120C1F808010B48E6
:1013A000D4300168C9040BD4026843F2D2010E4B59
:1013B00042F4805202601960016821F4805101609A
:1013C000F0BD000088ED00E000200052004402580B
:1013D0007FEDF6EA80020101000202020000FF0137
:1013E0000010005C00800051004000520148FFF7EF
:1013F0005EBE0000140000242DE9F047294B4FF099
:10140000804A294D02689842284E294F294C09D01C
:10141000504507D0A84205D0B04203D0B84201D011
:10142000A04205D1D1F804C022F070024CEA0202B9
:10143000DFF884C0DFF884809842DFF884900FD012
:1014400050450DD0A8420BD0B04209D0B84207D0C9
:10145000A04205D0604503D0404501D0484503D1A6
:10146000CD6822F440722A438E684D6922F08002D2
:10147000C6620E682A439842866207D0A04205D011
:10148000604503D0404501D0484501D10969016359
:101490000368012143F00403036041610260BDE879
:1014A000F0870000000001400004004000080040F8
:1014B000000C004000040140004001400044014095
:1014C00000480140FEE7090700284FEA116104DBEC
:1014D00000F1E02080F80014704700F00F0000F1E8
:1014E000E02080F8141D704702E008C8121F08C1F0
:1014F000002AFAD170477047002001E001C1121F95
:10150000002AFBD1704700001FB50024009401940D
:1015100002940394FEF7CAFF01208DF80C001F21EE
:101520008DF8081087228DF809208DF80D008DF8B0
:10153000000068468DF80A408DF80E408DF8014095
:1015400001948DF80B408DF80F40FEF781FF0420C9
:10155000FEF7BAFF21490868800311D4BFF34F8F0B
:10156000BFF36F8F1E480460BFF34F8FBFF36F8FC1
:10157000086840F400300860BFF34F8FBFF36F8FEF
:101580000868C00323D4154870300460BFF34F8F40
:10159000001F43F6FF740068114D1035C0F34E3242
:1015A000C0F3C90304EA4216184600BF46EA807732
:1015B0002F60401EFAD2521EF4D2BFF34F8F08683C
:1015C00040F480300860BFF34F8FBFF36F8FFEF79A
:1015D000CBFEFFF73BFEFFF71DFEFEE714ED00E03C
:1015E00050EF00E0000000000102030401020304C8
:1015F0000607080914160008000000241400000063
:10160000E814000828160008140000244C04000008
:10161000F8140008010000001000000000000000A5
:081620000090D0030090D003FC
:040000050800029954
:00000001FF
