:020000040800F2
:10000000E8050024AD020008533600085D31000801
:10001000513600086D050008654200080000000028
:100020000000000000000000000000009B390008F4
:100030006F05000800000000553600089D390008D3
:10004000CB020008CB020008CB020008CB0200085C
:10005000CB020008CB020008CB020008CB0200084C
:10006000CB020008CB020008CB020008CB0200083C
:10007000CB020008CB020008CB020008CB0200082C
:10008000CB020008CB020008CB020008CB0200081C
:10009000CB020008CB020008CB020008CB0200080C
:1000A000CB020008CB020008CB020008CB020008FC
:1000B000CB020008CB020008CB020008CB020008EC
:1000C000CB020008CB020008CB020008CB020008DC
:1000D000CB020008CB020008CB020008CB020008CC
:1000E000CB020008CB02000800000000CB02000891
:1000F000CB020008CB020008CB020008CB020008AC
:10010000CB020008CB020008CB020008CB0200089B
:10011000CB020008CB020008413B0008CB020008DC
:10012000CB020008CB020008CB020008CB0200087B
:10013000CB020008CB020008CB020008CB0200086B
:1001400000000000000000000000000000000000AF
:10015000CB020008CB020008CB020008CB0200084B
:10016000CB020008CB020008CB020008CB0200083B
:10017000CB020008CB020008CB0200080000000000
:10018000CB020008CB020008CB020008CB0200081B
:10019000CB020008CB020008CB020008CB0200080B
:1001A000CB020008CB020008CB020008CB020008FB
:1001B000CB020008CB020008CB020008CB020008EB
:1001C000CB020008CB020008CB020008CB020008DB
:1001D000CB020008CB020008CB020008CB020008CB
:1001E000CB020008CB020008CB020008CB020008BB
:1001F000CB020008CB020008CB020008CB020008AB
:10020000CB020008CB020008CB020008CB0200089A
:10021000CB020008CB020008CB020008CB0200088A
:10022000CB020008CB020008CB020008000000004F
:10023000CB020008CB02000800000000CB0200083F
:10024000CB020008CB020008CB020008CB0200085A
:10025000CB020008CB020008CB020008CB0200084A
:10026000CB020008CB020008CB020008CB0200083A
:10027000CB020008CB020008CB02000800000000FF
:10028000CB020008CB020008CB02000800000000EF
:1002900000000000CB020008DFF80CD000F07EF870
:1002A0000048004745470008E80500240748804704
:1002B0000748804707480047FEE7FEE7FEE7FEE7FE
:1002C000FEE7FEE7FEE7FEE7FEE7FEE7750500084E
:1002D000493A0008990200082DE9F05F0546002020
:1002E00092469B4688460646814640241BE02846A7
:1002F00041464746224600F041F853465A46C01A46
:10030000914110D311461846224600F028F82D1AC4
:1003100067EB01084F4622460120002100F01FF83C
:1003200017EB00094E41201EA4F10104DFDC484612
:1003300031462A464346BDE8F09FD2B201E000F8BC
:10034000012B491EFBD270470022F6E710B5134679
:100350000A4604461946FFF7F0FF204610BD202A42
:1003600004DB203A00FA02F1002070479140C2F10C
:10037000200320FA03F3194390407047202A04DB3E
:10038000203A21FA02F00021704721FA02F3D0400E
:10039000C2F120029140084319467047064C074DB0
:1003A00006E0E06840F0010394E807009847103445
:1003B000AC42F6D3FFF774FF444B0008644B0008CF
:1003C0002DE9FC41144E40F080004FF400551446D6
:1003D0000022884629468DF80000304600F004FAD5
:1003E0004FF0FF370D4801223B46694602F02AFBD9
:1003F0000A48012201A93B4602F0CCF907483B46D6
:100400002246414602F0C6F901222946304600F054
:10041000EBF9BDE8FC810000001C025880000024BC
:100420002DE9F843114E40F080004FF4804514460A
:100430000022884629468DF80000304600F0D4F9A5
:100440004FF0FF370A4801223B46694602F0FAFAAC
:1004500007483B462246414602F09CF901222946C4
:10046000304600F0C1F9BDE8F8830000001C0258D6
:100470008000002438B505460C4602F07F008DF858
:100480000000002228468DF8013000F0ADF9064842
:1004900002224FF0FF33694602F0D4FA01222146CE
:1004A000284600F0A1F938BD8000002438B50020AE
:1004B0008DF8000001214B2000F046F8322000F0BA
:1004C00067F8002469460122402000F02FF89DF8CB
:1004D0000000402805D0142000F05AF8641C052CB8
:1004E000F0DB9DF800100BA003F0BEFE01214B20B5
:1004F00000F02AF80A2000F04BF838214C2000F0D8
:1005000023F80421512000F01FF80F21522000F0A1
:100510001BF838BD424D4D3135302043686970209D
:1005200049443A203078253032580A000EB54FF051
:10053000FF338DE80E00012302460248262100F019
:100540001BFA0EBD2C00002403B583B04FF0FF331F
:10055000012204A98DE80E00134602460248262116
:1005600000F0BCFA05B000BD2C000024FEE7704787
:1005700072B6FEE7054805490839026842F00202F2
:10058000026008688004FCD5704700000C480258DF
:1005900070B5044600F034F90546601C02D00448EA
:1005A0000078044400F02CF9401BA042FAD370BD3F
:1005B000140000242DE9F84F03247F4D00234FF051
:1005C00001094FF0B04B4FF00F0AEDE009FA03F6C6
:1005D00032407AD00F7907F00307012F01D0022FA4
:1005E00019D187684FEA430ED1F80CC004FA0EF80F
:1005F00027EA08070CFA0EFC4CEA070CC0F808C002
:10060000D0F804C00F792CEA060CC7F300179F40FE
:1006100047EA0C0747600E79F643B60702D18E68A9
:10062000012E0BD0C6684FEA43088F6804FA08FC15
:1006300026EA0C0607FA08F73743C7600E7906F07A
:100640000306022E12D1DE080F694FEA437C00EB4D
:100650008606B646366A4FEADC6C0AFA0CF807FAE8
:100660000CF726EA08063743CEF820700F790668A3
:100670004FEA430807F0030704FA08FC07FA08F7F3
:1006800026EA0C06374307604E6816F4403F1CD03C
:100690004A4E376847F00207376036689F0706F012
:1006A0000206009623F0030606F1B046B6463F0F59
:1006B000D6F80864DFF808810AFA07FC404526EA04
:1006C0000C0603D14FF0000C41E06CE0DFF8F4C001
:1006D000604502D14FF0010C39E0DFF8ECC0604515
:1006E00002D14FF0020C32E0DFF8E0C0604502D1E9
:1006F0004FF0030C2BE0DFF8D8C0604502D14FF07B
:10070000040C24E0DFF8CCC0604502D14FF0050CAA
:100710001DE0DFF8C4C0604502D14FF0060C16E0C2
:10072000DFF8B8C0604502D14FF0070C0FE0DFF8EA
:10073000B0C0604502D14FF0080C08E0DFF8A4C05B
:10074000604502D14FF0090C01E04FF00A0C0CFAA1
:1007500007FC4CEA060CCEF808C44F68DBF80060D2
:10076000FF0226EA020600D516435F46CBF800607A
:10077000D1F804C0DBF804605FEA8C2C26EA02069C
:1007800000D516437E606E684F6826EA0206BF03F6
:1007900000D516436E602E684F6826EA0206FF03F6
:1007A00000D516432E605B1C0A6832FA03F67FF40C
:1007B0000DAFBDE8F88F000080000058F4440258E7
:1007C000000002580004025800080258000C0258A9
:1007D000001002580014025800180258001C025859
:1007E00000200258002402580AB1816170470904B0
:1007F000FBE7000001480068000C70470010005C37
:1008000001488068704700001400002430B590F85B
:100810004120202A24D190F84020012A20D0012311
:1008200080F84030242280F84120202300240268F0
:10083000156825F0010515600268156825F48055D6
:100840001560026815680D43156001680A6842F07A
:1008500001020A6080F8413080F84040002030BD3D
:10086000022030BD30B590F84120202A22D190F8E6
:100870004020012A1ED0012380F84030242280F835
:100880004120202400250268136823F0010313602F
:100890000268136823F4706343EA01211160016860
:1008A0000A6842F001020A6080F8414080F8405036
:1008B000002030BD022030BD70B5040004D094F893
:1008C0004100002510B106E0012070BD204684F8EB
:1008D000405000F0AFF9242084F8410020680168FE
:1008E00021F001010160D4E9001020F0706008617E
:1008F0002068816821F400418160E0682168012856
:10090000A06830D040F404408860E0680228206885
:1009100041682BD021F40061416020682021154AF4
:100920004368134343602068C26822F40042C260F7
:1009300054F8106B0DCC104340EA0320F06054F8DB
:100940001C3CD4E900021043186054F81C0D0268E6
:1009500042F001020260656484F84110256384F866
:100960004250002070BD40F40040CDE741F40061EA
:10097000D2E70000008000022DE9FF4F83B004465B
:1009800090F841009A469346DDE91087DDF84890DB
:10099000202874D15FEA080014D09FB194F8400079
:1009A00001286CD0012084F84000FFF729FF0122C4
:1009B000064619230090D103204602F0E5FC0028EA
:1009C00071D103E04FF4007060646CE00025C4F85E
:1009D0002480222184F84110402084F8420065647C
:1009E0006785534665635A4604992046CDE90096CB
:1009F00002F04EFC10B184F8405054E0618DFF27A6
:100A000034484FF08078FF294FF0007A04D92785C9
:100A10003A464346009005E0618D5346218500909B
:100A200094F828202046049902F096FC00224B46B8
:100A300004212046009602F0A7FCA0BB2068616A52
:100A4000406A0870606A401C6062208D401E81B25E
:100A50002185608D401E6085608DD8B1D1B900229E
:100A60004B4680212046009602F08EFCD8B9608D5E
:100A7000FF2805D927853A464346009506E026E03B
:100A8000608D53462085009594F8282020460499CF
:100A900002F062FC608D0028C8D1324649462046EB
:100AA00002F0B0FC18B1012007B0BDE8F08F21685A
:100AB0002020094AC86121684B6813404B6084F8C4
:100AC000410084F84250002084F84050ECE70220B6
:100AD000EAE700000024008000E800FE2DE9FF4F57
:100AE00083B0044690F841009A469346DDE91087AA
:100AF000DDF84890202871D15FEA080014D09FB13A
:100B000094F84000012869D0012084F84000FFF7E4
:100B100077FE0122064619230090D103204602F0F9
:100B200033FC00286ED103E04FF40070606469E08C
:100B30000025C4F82480212184F84110402084F845
:100B4000420065646785534665635A4604992046AA
:100B5000CDE9009602F0CEFB10B184F8405051E090
:100B6000608DFF274FF08078FF284FF0007A04D97E
:100B700027853A464346009505E0608D534620851B
:100B8000009594F828202046049902F0E5FB3246AF
:100B90004946204602F062FCA0BB606A21680078EA
:100BA0008862606A401C6062608D401E6085208D96
:100BB000401E80B22085618DD9B1D0B900224B464C
:100BC00080212046009602F0DFFBD8B9608DFF2817
:100BD00005D927853A464346009506E026E0608D14
:100BE00053462085009594F828202046049902F069
:100BF000B3FB608D0028CAD132464946204602F038
:100C000001FC18B1012007B0BDE8F08F2068202159
:100C1000074AC161206843681340436084F841106B
:100C200084F84250002084F84050ECE70220EAE7C4
:100C300000E800FE10B5B6B00446142130A8FFF756
:100C400083FBC0216846FFF77FFB18492068884274
:100C50002AD10020219008210446CDE900106846E1
:100C600000F0C2FA08B1FFF783FC1148016841F0B7
:100C700002010160006830AB122100F002003590E3
:100C8000C020042283E813000A4830A9CDE933428A
:100C9000FFF790FC06480830016841F4001101603C
:100CA000006800F40010359036B010BD00540040CC
:100CB000E044025800040258024881680278114456
:100CC0008160704714000024032010B500F0FAF88A
:100CD00001F002F90F4A104914681368C4F30322A3
:100CE00003F00F038A5CC95C02F01F0201F01F01D0
:100CF000D0400A4A20FA01F11160094908600F202A
:100D000000F010F808B1012010BD00F09FF800209D
:100D100010BD000018440258344B00082400002481
:100D20002000002410B5102804468AB02CD20022DE
:100D30000146362000F0A6F8362000F095F8174856
:100D400004601748016841F010010160006809A9BA
:100D500000F010000890684601F04AF80598B0B11C
:100D600001F096F840000F4900220F4CB0FBF1F162
:100D70000E4840F2E7330460C0E90332491EC0E97F
:100D8000011201F07EFF28B101200AB010BD01F070
:100D90007FF8E8E7054801F0A7FFF6E71800002410
:100DA000E844025840420F00001000409C0100241B
:100DB000154BF0B5083B427813491A600B680A1FBF
:100DC00023F001030B6043681360057BC67A827AC7
:100DD000437B2D07847B45EA0665C77B90F809C0F5
:100DE000067A90F800E045EAC24040EA834040EAD3
:100DF000444040EA074040EA0C2040EA460040EA0E
:100E00000E000860F0BD0000A0ED00E0BFF35F8FB2
:100E1000044800210368034A23F4803303607032DE
:100E20001160704724ED00E0074A40F001000649D8
:100E300070321060086840F480300860BFF34F8F54
:100E4000BFF36F8F7047000024ED00E0054808B540
:100E5000016841F002010160006800F002000090AA
:100E600008BD0000F4440258002809DB410900F0E5
:100E70001F028900012001F1E0219040C1F800012A
:100E8000704700000E4BF0B41B680D46C3F30223FD
:100E9000C3F10706042E00D90426191D072901D223
:100EA000002300E0DB1E012404FA06F19C40491EE9
:100EB0002940641E994014402143F0BC03F0E4B97A
:100EC0000CED00E0064900F0070210B54FF6FF04F4
:100ED0000868044B204040EA02201843086010BD17
:100EE0000CED00E00000FA05134970B50A68D24322
:100EF000520705D5096801F00701814213D118E0B6
:100F00000A6822F0070202430A60FFF779FC0A4DE3
:100F10004FF47A760446083D07E000BFFFF770FC07
:100F2000001BB04201D9012070BD2868C043800475
:100F3000F4D4002070BD00000C48025810B500F039
:100F400085FF05490968054AC1F30211515C01F0AA
:100F50001F01C84010BD000020440258344B000857
:100F6000494930B5484C0B1D0A68143409681D689E
:100F7000246802F00303C5F30012C1F30531C4F382
:100F8000CC04002914FB02F200EE102AF8EE400A0D
:100F900075D03F4A9FED3D1AB7EE000A6BB1DFED09
:100FA0003D1A012B01D0022B64D002EE101A1168F9
:100FB000F8EE422A81EEA22A21E0334C283C236835
:100FC0009B0612D5344B246801EE901A1168C4F3C5
:100FD000C104F8EE612AE34001EE903AC1F3080142
:100FE000F8EE611A81EEA22A0BE001EE901ADFED15
:100FF0002B2A00BFF8EE611A116882EEA12AC1F314
:10100000080101EE901A1168F8EE611A40EE811A9B
:1010100071EE800A62EE200AC1F3462101EE101A39
:10102000B8EE411A31EE001AC0EE811ABCEEE11A98
:1010300080ED001A1168C1F3064101EE101AB8EEF6
:10104000411A31EE001AC0EE811ABCEEE11A80EDB1
:10105000011A1168C1F3066101EE101AB8EE411AC7
:1010600031EE000A80EE801ABCEEC10A80ED020A61
:1010700030BD04E001EE901ADFED092ABAE7002145
:10108000016041608160F3E72844025800000039A4
:10109000384402580024744A0090D0030024744C51
:1010A00020BCBE4B494930B5484C0B1D0A681C3466
:1010B00009681D68246802F00303C5F30022C1F328
:1010C0000551C4F3CC04002914FB02F200EE102AEF
:1010D000F8EE400A75D03F4A9FED3D1AB7EE000A80
:1010E0006BB1DFED3D1A012B01D0022B64D002EE73
:1010F000101A1168F8EE422A81EEA22A21E0334C40
:10110000283C23689B0612D5344B246801EE901AC4
:101110001168C4F3C104F8EE612AE34001EE903A8D
:10112000C1F30801F8EE611A81EEA22A0BE001EE8C
:10113000901ADFED2B2A00BFF8EE611A116882EEDB
:10114000A12AC1F3080101EE901A1168F8EE611AA4
:1011500040EE811A71EE800A62EE200AC1F3462148
:1011600001EE101AB8EE411A31EE001AC0EE811AE3
:10117000BCEEE11A80ED001A1168C1F3064101EEE0
:10118000101AB8EE411A31EE001AC0EE811ABCEE08
:10119000E11A80ED011A1168C1F3066101EE101A1F
:1011A000B8EE411A31EE000A80EE801ABCEEC10A98
:1011B00080ED020A30BD04E001EE901ADFED092A4D
:1011C000BAE70021016041608160F3E728440258DA
:1011D00000000039404402580024744A0090D003B3
:1011E0000024744C20BCBE4B2DE9FE4F0546DFF8B1
:1011F000E48350F8081B0024F64FC943019005F121
:101200002800264608F12408009008011DD4A86E85
:1012100050B1B0F5801F0CD0B0F5001F0ED0B0F566
:10122000401F1ED001240FE0386840F400303860C1
:1012300017E00198022102F00FFA03E00098022162
:1012400002F09AFA04000CD026462888C043C00554
:1012500023D4A86D05281ED2DFE800F00C11161B60
:101260001B00AA6ED8F8001021F440111143C8F8F1
:101270000010EAE7386840F40030386009E001986F
:10128000002102F0E9F903E00098002102F074FA6D
:10129000044674B100E0012426462888C043800536
:1012A00028D4E86D80281ED00CDC90B140280ED1E7
:1012B00014E0AA6DD8F8001021F007011143C8F816
:1012C0000010EAE7C02813D0B0F5807F10D00124C9
:1012D0000FE0386840F40030386009E001980021E0
:1012E00002F0BAF903E00098002102F045FA044642
:1012F0009CB126462888DFF8DC92C04309F12C090E
:1013000040052CD4D5F8A800B0F5800F20D00DDC16
:10131000A0B1B0F5001F0FD115E0EA6DD8F80010AC
:1013200021F4E0711143C8F80010E3E7B0F5C00FF5
:1013300013D0B0F5000F10D001240FE0386840F44E
:101340000030386009E00198002102F085F903E0DF
:101350000098002102F010FA04467CB12646288845
:10136000C04300052DD4D5F8AC00B0F1007F21D0EA
:101370000EDCA8B1B0F1807F10D116E0D5F8A8201E
:10138000D9F8001021F460011143C9F80010E6E714
:10139000B0F1407F13D0B0F1806F10D001240FE086
:1013A000386840F40030386009E00198002102F00C
:1013B00053F903E00098002102F0DEF9044674B10D
:1013C00026462868C04380011FD4E86CD8B1102895
:1013D0000FD0202812D0302815D0012414E0D5F8E1
:1013E000AC20D9F8001021F0E0611143C9F80010D9
:1013F000E7E7386840F40030386004E001980221E3
:1014000002F02AF9044674B126462888C043C00475
:101410002BD4286EB0F5005F20D00DDCA0B1B0F564
:10142000805F0FD115E06B48EA6C2030016821F035
:10143000300111430160E8E7B0F5405F13D0B0F52B
:10144000804F10D001240FE0386840F4003038603D
:1014500009E00198002102F0FFF803E00098002164
:1014600002F08AF904468CB126462888C0438004DD
:1014700029D4686EB0F5403F23D010DC08B3B0F536
:10148000803F14D0B0F5003F0FD115E02A6ED8F898
:10149000001021F4E0411143C8F80010E5E7B0F571
:1014A000802F0ED0B0F5A02F0BD001240AE00198B8
:1014B000012102F0D1F803E00098012102F05CF96B
:1014C000044694B126462888C04340042AD4D5F85F
:1014D000B000B0F1405F23D010DC08B3B0F1805F02
:1014E00014D0B0F1005F0FD115E06A6ED8F800108B
:1014F00021F4E0211143C8F80010E4E7B0F1804F77
:101500000ED0B0F1A04F0BD001240AE001980121C8
:1015100002F0A2F803E00098012102F02DF9044640
:1015200074B126462888C04300041FD4286FD8B160
:10153000B0F1805F0ED0B0F1005F10D0012414E054
:10154000D5F8B020D9F8001021F0E0411143C9F8D6
:101550000010E7E7386840F40030386004E0019894
:10156000012102F079F8044674B126462868C04388
:10157000C0011ED4A86CD0B101280ED0022811D011
:10158000032814D0012413E02A6FD8F8001021F0AA
:1015900040511143C8F80010E8E7386840F40030C3
:1015A000386004E00198022102F056F80446ACB11C
:1015B00026462868DFF81CB0C043ABF11C0B400284
:1015C00052D40548016841F480710160FFF718F9B1
:1015D000824611E02C44025800480258FA48AA6C8E
:1015E000016821F0030111430160E2E7FFF708F908
:1015F000A0EB0A00642835D8F4480068C005F5D58A
:101600008CBBDFF8C4A3B5F8B4100AF1240ADAF8E9
:10161000000001F4407100F44070884211D0DAF803
:101620000010DAF8002021F4407142F48032CAF848
:101630000020DAF8002022F48032CAF80020CAF82C
:101640000010D5F8B400B0F5807F1AD1FFF7D8F8B4
:10165000029012E0FFF7D4F80299411A41F2883063
:1016600081420AD9032426462878DFF85CA3C043C8
:101670000AF1080AC00721D03CE0DAF80000800730
:10168000E8D5D5F8B410C1F30120032858460DD091
:10169000016821F47C510160B5F8B420DAF800103B
:1016A000C2F30B021143CAF80010DDE7C84A036811
:1016B00002EA111223F47C511143ECE7E86F182879
:1016C00016D005DCA0B1082808D0102804D10AE003
:1016D00020280DD028280BD001240AE001980121F0
:1016E00001F0BAFF03E00098012102F045F804463A
:1016F00064B126462878C04380071ED4A86F062808
:1017000019D2DFE800F0160C11161616EA6FDAF897
:10171000001021F038011143CAF80010EAE70198DF
:10172000012101F099FF03E00098012102F024F863
:1017300004467CB100E0012426462878C0434007D7
:101740001FD4D5F89400062819D2DFE800F0160C53
:1017500011161616AA6FDAF8001021F007011143CE
:10176000CAF80010E9E70198012101F075FF03E0D4
:101770000098012102F000F80446A4B100E0012421
:1017800026462878C04380062BD4D5F89000B0F1C7
:10179000405F24D011DC10B3B0F1805F15D0B0F100
:1017A000005F10D116E0D5F89420D9F8001021F090
:1017B00007011143C9F80010E3E7B0F1804F0ED0E4
:1017C000B0F1A04F0BD001240AE00198002101F0F4
:1017D00043FF03E00098022101F0CEFF044694B1DC
:1017E00026462878C04340062BD4D5F89C00B0F597
:1017F000406F24D011DC10B3B0F5806F15D0B0F578
:10180000006F10D116E0D5F89020DAF8001021F022
:10181000E0411143CAF80010E3E7B0F5805F0ED055
:10182000B0F5A05F0BD001240AE00198002101F07F
:1018300013FF03E00098022101F09EFF044694B1DB
:1018400026462878C04300062BD4D5F8A000B0F572
:10185000C04F24D011DC10B3B0F5005F15D0B0F547
:10186000804F10D116E0D5F89C20D9F8001021F453
:10187000E0511143C9F80010E3E7B0F5004F0ED076
:10188000B0F5204F0BD001240AE00198002101F0AF
:10189000E3FE03E00098022101F06EFF044654B11C
:1018A00026462878C04300071ED4D5F88400B0F53A
:1018B000805F0AD00FE0D5F8A020D9F8001021F4FD
:1018C00060411143C9F80010EBE70098022101F0D4
:1018D00053FF00B10126D5F88420DAF8001021F476
:1018E00040511143CAF800102878C043C00613D4F1
:1018F000D5F89800B0F5807F05D10098022101F05D
:101900003BFF00B10126D5F89820D9F8001021F44A
:1019100040711143C9F800102868C043000316D471
:10192000D5F8A40038B1B0F5803F09D0B0F5003F3C
:101930000BD001240AE00198002101F08DFE03E0A4
:101940000098022101F018FF04468CB12646286851
:10195000C043400322D4D5F88800B0F5801F11D0D1
:10196000B0F5001F13D0B0F5401F15D0012414E0CE
:10197000D5F8A420D9F8001021F440311143C9F85A
:101980000010E4E7386840F40030386004E0009864
:10199000012101F0F1FE04465CB126462868C043EF
:1019A000C00323D4286DA8B1B0F5803F17D001241F
:1019B0001BE0D5F88820DAF8001021F4401111431B
:1019C000CAF80010EAE700004C44025800480258E8
:1019D000CFFFFF00386840F40030386004E0019821
:1019E000022101F039FE0446E4B126462868C043CE
:1019F000800005D40098022101F0BEFE00B101264E
:101A00002868C04380031BD4D5F88000B0B1B0F57E
:101A1000807F0FD0B0F5007F10D0B0F5407F0DD0A3
:101A200001240CE05A482A6D016821F480311143E9
:101A30000160DBE7386840F400303860ECB32646DC
:101A40002868C043C00207D46A6FD8F8001021F09C
:101A500000411143C8F800102868C043C00008D4F2
:101A6000D5F8B820DBF8001021F480411143CBF801
:101A700000102868C043800207D4EA6ED8F800102E
:101A800021F080711143C8F800102868C04340005D
:101A90000CD4DBF8001021F40041CBF80010DBF887
:101AA0000010D5F8BC201143CBF800102868C043C3
:101AB00008D437486A6D016800E018E021F0405111
:101AC000114301602868C043000208D4D5F88C2077
:101AD000DAF8001021F440011143CAF80010287907
:101AE0000024C04300F0010020430AD00FE0D5F8E5
:101AF0008020DAF8001021F440711143CAF8001078
:101B00009EE70198002101F0A7FD00B10646287963
:101B1000C04300F00200204305D10198012101F0EB
:101B20009BFD00B106462879C04300F00400204325
:101B300005D10198022101F08FFD00B106462879F8
:101B4000C04300F00800204305D10098002101F0B7
:101B500013FE00B106462879C04300F01000204370
:101B600005D10098012101F007FE00B10646287951
:101B7000C04300F02000044304D10098022101F08A
:101B8000FBFD00B916B10120BDE8FE8F0020FBE788
:101B90004C4402582DE9F05F04000F467ED0DFF878
:101BA0003882D8F8000000F00F00B8420CD2D8F804
:101BB000001021F00F013943C8F80010D8F80000D8
:101BC00000F00F00B84269D12078844D40070AD553
:101BD0002069296801F07001884204D9296821F040
:101BE00070010143296020787C4E361D00070AD51C
:101BF0006069316801F07001884204D9316821F0D0
:101C00007001014331602078C0060AD5A0693168AF
:101C100001F4E061884204D9316821F4E0610143B4
:101C200031602078DFF8B4B180060BF1080B0CD5D9
:101C3000E1695846DBF8002002F07002914204D9B5
:101C4000026822F070020A430260207880070AD5F9
:101C5000E068296801F00F01884204D9296821F061
:101C60000F01014329602078C0073ED05B49A2687C
:101C70002868183920F470601043286060680228D2
:101C800018D0032819D00968012819D0490700295C
:101C90004ADADFF848A1AAF1080A00E044E0DAF8DD
:101CA000002022F007020243CAF80020FEF7A8FD38
:101CB000814612E009688903E9E709688901E6E7D6
:101CC000C905E4E7FEF79CFDA0EB090141F288306D
:101CD000814202D90320BDE8F09F6168DAF8000074
:101CE00000F03800B0EBC10FECD1207880070AD5A6
:101CF000E068296801F00F01884204D2296821F0C8
:101D00000F0101432960D8F80010404601F00F018F
:101D1000B9420BD9016821F00F0139430160006815
:101D200000F00F00B84201D00120D4E7207840072E
:101D30000AD52069296801F07001884204D2296817
:101D400021F0700101432960207800070AD56069FD
:101D5000316801F07001884204D2316821F07001CD
:101D6000014331602078C0060AD5A069316801F4CA
:101D7000E061884204D2316821F4E06101433160BE
:101D8000207880060CD5E1695846DBF8002002F087
:101D90007002914204D2026822F070020A4302608B
:101DA00000F09AF80E492A682B68C2F3032203F068
:101DB0000F038A5CC95C02F01F0201F01F01D040D2
:101DC000084A20FA01F111600749086007480068D5
:101DD000BDE8F05FFEF7A6BF00200052184402588D
:101DE000344B0008240000242000002418000024A4
:101DF00070B5144C3F220260124A24680832131D49
:101E0000114D04F00704446016681C1D06F470664A
:101E10008660166806F00F06C660126802F070024F
:101E200002611A6802F0700242611A6802F4E0620C
:101E30008261226802F07002C261286800F00F001F
:101E4000086070BD104402580020005230B500F008
:101E500043F80B4A0B490C4B15681468C5F3032271
:101E600004F00F048A5C095D02F01F0201F01F01FB
:101E7000D040064A20FA01F119601060084630BDD2
:101E800018440258344B0008240000242000002489
:101E900000B5FFF7DBFF05490968054AC1F30211E8
:101EA000515C01F01F01C84000BD00001C440258F5
:101EB000344B000800B5FFF7C9FF05490968054A1A
:101EC000C1F30221515C01F01F01C84000BD0000B8
:101ED0001C440258344B0008454970B54548096810
:101EE000434B103B11F0380208D00111082A03D0EF
:101EF000102A0BD0182A0BD0084670BD1968890625
:101F0000FBD51968C1F3C101C84070BD3A4870BD26
:101F10003749374D18310C1D24350A680968266881
:101F20002D6802F0030406F00102C1F30511C5F3A8
:101F3000CC0515FB02F200EE102AB8EE400AE9B318
:101F40002F4ADFED2E0AB7EE001A6CB1DFED2D1A25
:101F5000012C01D0022C43D002EE101A1068F8EECA
:101F6000422A81EEA22A1EE01C68A40611D51B6835
:101F700001EE901A1168C3F3C103F8EE612AD8404C
:101F800001EE900AC1F30800F8EE611A81EEA22A70
:101F90000BE001EE901ADFED1C2A00BFF8EE611A8B
:101FA000106882EEA12AC0F3080001EE900AF8EE54
:101FB000611A40EE201A31EE810A00E015E022EEAF
:101FC000000A1068C0F34620401C00EE900AF8EEAC
:101FD000600A80EE201ABCEEC10A10EE100A70BD35
:101FE00001EE901ADFED092AD8E7002070BD00004D
:101FF000104402580090D00340787D010000003961
:10200000304402580024744A0024744C20BCBE4B57
:102010002DE9F05F04007DD0FF4F2078FE4D18378A
:10202000DFF8F493103DC00748D0D9F800003968B4
:1020300000F03800102815D0182803D101F0030053
:1020400002280FD06068B0F5803F12D010B1B0F513
:10205000A02F18D0286820F480302860286820F449
:10206000802009E02868800328D560680028D2D045
:1020700024E0286840F480302860606888B1FEF76A
:10208000BFFB064609E0286840F480202860F0E79E
:10209000FEF7B6FB801B64286FD828688003F7D54D
:1020A0000CE0FEF7ADFB064605E000BFFEF7A8FB1F
:1020B000801B6428F0D828688003F7D4207841F288
:1020C0000308D54E0C3E800769D5D9F80000396861
:1020D00010F038000ED0182801D188070AD0E06827
:1020E00090B3296821F0190101432960FEF788FBAC
:1020F000824631E02868400702D5E06800288AD08F
:10210000E168286820F0190008432860FEF778FB92
:10211000824607E0DFE000BFFEF772FBA0EB0A009B
:102120000228B9D828684007F6D500BFFEF762FB41
:1021300040451BD82069402812D0316821F47C31F9
:1021400041EA003030602AE018E000BFFEF758FB9B
:10215000A0EB0A0002289FD828684007F6D5E5E7DB
:10216000306820F47C3040F40030EBE7207C3168AC
:1021700021F0FE4141EA0060E4E70DE1286820F02B
:1021800001002860FEF73CFB824605E0FEF738FBC5
:10219000A0EB0A0002288DD828684007F6D42078E2
:1021A000C0065DD5D9F80000DFF86CB2396800F0E0
:1021B0003800ABF1040B082810D0182803D101F027
:1021C000030001280AD0E0690028286838D040F0D0
:1021D00080002860FEF714FB824623E02868C005D3
:1021E00023D5E069802876D11FE0206A202821D0FD
:1021F000316821F0F84141EA8060306030E000BF92
:1022000094F82010DBF8002022F07C5242EA0161B1
:10221000CBF8001024E000BFFEF7F2FAA0EB0A00B2
:10222000022898D82868C005F6D5FEF7E3FA40459D
:10223000E6D8DAE7306820F0F84040F08040DCE78C
:1022400020F080002860FEF7DBFA064605E000BFBC
:10225000FEF7D6FA801B02289DD82868C005F7D45F
:102260002078000729D56C486169643000298046D0
:10227000016811D041F001010160FEF7C1FA064684
:1022800005E000BFFEF7BCFA801B0228C9D8D8F8C9
:1022900000008007F6D510E021F001010160FEF793
:1022A000AFFA064605E000BFFEF7AAFA801B022837
:1022B00072D8D8F800008007F6D42078800623D59D
:1022C000A0690028286810D040F480502860FEF7EC
:1022D00097FA064605E036E1FEF792FA801B0228DF
:1022E0005AD828688004F7D50EE020F48050286082
:1022F000FEF786FA064604E0FEF782FA801B022803
:102300004AD828688004F7D4207840074FD5DFF8F2
:102310000C81D8F8001041F48071C8F80010FEF765
:102320006FFA064605E000BFFEF76AFA801B6428D4
:1023300032D8D8F80000C005F6D5374EA068603610
:1023400001280AD008B1052813D0306820F0010018
:102350003060306820F0040002E0306840F0010096
:102360003060A06841F2883A90B1FEF749FA8046A1
:102370000AE0306840F004003060EEE7FEF740FA13
:10238000A0EB0801514507D830688007F6D50EE06C
:10239000FEF736FA804607E084E000BFFEF730FA29
:1023A000A0EB080151457DD830688007F6D4606AFB
:1023B000B0B3DFF86480D9F8001008F120084FF6B8
:1023C000F87B08F10409C1F3C2010329A8F1040A4A
:1023D00069D00228286820F08070286003D0FEF7BA
:1023E0000FFA044684E0FEF70BFA064605E000BF4C
:1023F000FEF706FA801B022877D828688001F7D4F8
:10240000E26A40F2F331386854F8283F884340EAE2
:1024100002101843386004E0104402580048025883
:10242000B5E0217B434622894FF4FE0C208A4FF011
:10243000FE474902267D521E401EA1F50071C2F3DF
:1024400008088AB2761E0CEA004042EA08020243FB
:10245000504607EA06610A431A60DAF8002022F0C3
:102460000102CAF80020D9F80020266A22EA0B02ED
:1024700042EAC602C9F80020DAF80010A26921F089
:102480000C011143CAF800100168E26921F0020151
:1024900011430160016841F480310160016841F439
:1024A000003101E021E027E00160016841F4802172
:1024B0000160016841F001010160286840F080700E
:1024C0002860FEF79DF9044605E000BFFEF798F985
:1024D000001B022809D828688001F7D557E000BF03
:1024E000FEF78EF9001B022802D90320BDE8F09FF9
:1024F00028688001F4D44AE039680128D8F800003F
:1025000021D0A26A01F0030393421CD1E26AC1F315
:1025100005118A4217D1216BC0F30802491E8A4275
:1025200011D1616BC0F34622491E91420BD1A16BC0
:10253000C0F30642491E914205D1E16BC0F306602B
:10254000491E814201D00120D0E7A16C4E46D9F846
:102550000000C0F3CC00814219D0DAF800005546E3
:1025600020F00100CAF80000FEF74AF94FEA000720
:10257000FEF746F9B842FBD0A26C306820EA0B00A7
:1025800040EAC2003060286840F001002860002066
:10259000ACE700002DE9F047040029D0594A4FF07C
:1025A00000092068584B594D9042C4F8289006D035
:1025B000984204D0A84202D0E1680F2918D8E168F7
:1025C0004FF0010AE76B0831C9080AEB571671434F
:1025D000904205D0984203D0A84201D0082907D8DC
:1025E000904203D0984201D0A84204D1102902D9C8
:1025F0000120BDE8F08794F8810020B9204684F8D6
:10260000809000F085F8022084F88100206801683D
:1026100021F0010101602068A1698268B1F1806F39
:1026200002F4F81110D16268B2F5800F01D01AB12E
:102630000AE0A26B22B107E0A26BB2F1805F03D186
:10264000026842F4805202606068400209D5E06886
:10265000072806D32068236D026822F480721A438B
:1026600003E02068026822F480720260A66AE069D2
:10267000E26B25683043E3680A4310431843A860BF
:10268000D4E90D02D4E90581636A25691843D4F8B9
:1026900020C00A43266810432843A56DD4E901727F
:1026A000D4E9123140EA080040EA0C0038430843FC
:1026B000104318432843F060606868B92068816857
:1026C00021F4C05141F4006181602068816821F4E7
:1026D000C06141F4806181602068016D21F00101D9
:1026E00001656068400206D52068626DC16821F00E
:1026F00000411143C160C4F8849084F881A0002097
:1027000077E700000030014000380040003C004006
:1027100010B5B6B00446142130A8FDF715FEC0214F
:102720006846FDF711FE1849206888422AD18114B5
:10273000002018900446CDE900106846FEF754FDCD
:1027400008B1FDF715FF1148016841F4805101609F
:10275000006800F4805035900C481038016841F052
:1027600001010160006830AB022100F001003590EA
:10277000E020052283E81300054830A9CDE9334263
:10278000FDF718FF36B010BD00300140F04402588C
:10279000000002582DE9F05F0446C06B9B461646C8
:1027A00089464009401C1FFA80F8FEF729F8824646
:1027B00094F88100012838D1B9F1000F71D0002EB2
:1027C000FCD094F8800001282FD0A16800250127B3
:1027D00084F88070042084F88100C4F88450C4F820
:1027E0006490E565A4F86050256765672C34B1F501
:1027F000C02FA687E687E58654F82C0D18D0C1684F
:1028000021F4C02141F48021C160206841686FF348
:102810000F01314341602068016841F0010101600E
:102820006068B0F5800F08D00CE00220BDE8F09F92
:10283000016821F400610160E7E72068016841F464
:1028400000710160E0680F282FD833E020684169EB
:102850004269D20705D1B4F86A3043450DD20A0463
:102860000BD5006B616E0860606E001D6066B4F889
:102870006A00401EA4F86A0017E0090507D5016840
:10288000890512D5816941F4006181610DE0FDF790
:10289000B7FFA0EB0A01594504D3BBF1FF3F04D0B9
:1028A000C1E0BEE0BBF1000F47D0B4F86A000028D9
:1028B000CCD1AAE0072844D8A3E020684169426946
:1028C000D20709D0008E616E0880606E801C606641
:1028D000B4F86A00401E14E0B4F86A30434513D2DD
:1028E0000A0411D5008E616E0880606E801C6066DF
:1028F0002168098E0180606E801C6066B4F86A00F1
:10290000801EA4F86A001CE0B4F86A20012A01D1F4
:102910008A04D7D4090507D50168890511D58169CD
:1029200041F4006181610CE0FDF76AFFA0EB0A0150
:10293000594503D3BBF1FF3F03D074E0BBF1000F57
:1029400071D0B4F86A000028B7D15EE02068416910
:102950004269D20704D090F83010606E017030E008
:10296000B4F86A30434521D20A041FD590F83000EC
:10297000616E0870606E401C6066216891F83010CE
:102980000170606E401C6066216891F83010017023
:10299000606E401C6066216891F830100170606EB6
:1029A000401C6066B4F86A00001F10E0B4F86A20AA
:1029B000042A0FD211F4C04F0CD090F83000616E91
:1029C0000870606E401C6066B4F86A00401EA4F88F
:1029D0006A0016E0090507D50168890511D58169E6
:1029E00041F4006181610CE0FDF70AFFA0EB0A01F0
:1029F000594503D3BBF1FF3F03D014E0BBF1000FF7
:102A000011D0B4F86A000028A0D1204600F044FF9D
:102A100084F88170D4F8840084F8805000283FF452
:102A200005AF012002E7204600F036FFD4F884000D
:102A300084F8805040F48070C4F8840084F8817079
:102A40000320F3E62DE9F84F994617468A460446D7
:102A5000FDF7D6FE064694F88100012839D1BAF177
:102A6000000F7CD0002FFCD094F88000012830D0DB
:102A7000A26800254FF0010884F88080032184F8C3
:102A80008110C4F88450C4F85CA06566A4F868504E
:102A9000656725672C34B2F5C02FA786E786E587E2
:102AA00054F82C0D18D0C16821F4C02141F4003134
:102AB000C160206841686FF30F01394341602068AD
:102AC000016841F0010101606068B0F5800F08D035
:102AD0000CE00220BDE8F88F016841F4006101605C
:102AE000E7E72068016841F400710160E0680F28A1
:102AF0001CD820E02068416989070BD5E16D096881
:102B00000162E06D001DE065B4F86200401EA4F8AB
:102B100062000BE0FDF774FE811B494503D3B9F158
:102B2000FF3F03D09BE0B9F1000F31D0B4F8620051
:102B30000028DFD177E007282ED870E020684169AF
:102B400089071DD5B4F8621001290DD9E16B59B17F
:102B5000E16D09680162E06D001DE06500E07CE068
:102B6000B4F86200801E08E0E16D09880184E06D20
:102B7000801CE065B4F86200401EA4F862000BE01F
:102B8000FDF73EFE811B494503D3B9F1FF3F03D05A
:102B900065E0B9F1000F62D0B4F862000028CDD131
:102BA00041E02068416989072DD5B4F862100329F6
:102BB0000CD9E16B402909D9E16D09680162E06D2A
:102BC000001DE065B4F86200001F19E0B4F862105F
:102BD00001290BD9E16B49B1E16D09880184E06DF0
:102BE000801CE065B4F86200801E09E0E16D0978A0
:102BF00080F82010E06D401CE065B4F86200401ED3
:102C0000A4F862000BE0FDF7FBFD811B494503D3EF
:102C1000B9F1FF3F03D022E0B9F1000F1FD0B4F8A3
:102C200062000028BDD100224B46082120460096B4
:102C300000F090FE28B1D4F8840040F02000C4F8E1
:102C40008400204600F028FE84F88180D4F88400B7
:102C500084F8805000283FF43DAF01203AE7204639
:102C600000F01AFED4F8841084F8805041F480718A
:102C7000C4F8841084F8818003202BE770477047E4
:102C8000704710B5040003D094F83D0010B107E080
:102C9000012010BD002084F83C00204600F022F8FE
:102CA000022084F83D002068211D00F04FFF012024
:102CB00084F8480084F83E0084F83F0084F840001F
:102CC00084F8410084F8420084F8430084F844000A
:102CD00084F8450084F8460084F8470084F83D00F5
:102CE000002010BD7047000090F83D10012901D070
:102CF00001207047174A022180F83D100168CB6817
:102D000043F00103CB600068904214D0B0F1804FD3
:102D100011D0114988420ED0104988420BD0104979
:102D2000884208D00F49884205D00F49884202D016
:102D30000E49884207D181680D4A1140062906D004
:102D4000B1F5803F03D0016841F00101016000202E
:102D500070470000000001400004004000080040EF
:102D6000000C0040000401400018004000400140F9
:102D70000700010070472DE9F04104460068002774
:102D8000C6680569A90713D5B10711D5FA1E0261F6
:102D900001212177206880698007204602D0FFF753
:102DA000E9FF04E000F08BF8204600F089F827776F
:102DB000680716D5700714D5226802206FF0040149
:102DC000116120772068806910F4407F204602D08E
:102DD000FFF7D0FF04E000F072F8204600F070F832
:102DE0002777280715D5300713D5226804206FF000
:102DF0000801116120772068C0698007204602D051
:102E0000FFF7B8FF04E000F05AF8204600F058F849
:102E10002777E80616D5F00614D5226808206FF04B
:102E20001001116120772068C06910F4407F2046AE
:102E300002D0FFF79FFF04E000F041F8204600F0C9
:102E40003FF82777E80708D0F00706D021686FF031
:102E500001000861204600F035F8280601D4A804D6
:102E600008D5300606D521686FF402500861204667
:102E7000FFF705FFE80508D5300606D521686FF491
:102E8000807008612046FFF7F9FE680608D57006D5
:102E900006D521686FF040000861204600F01CF85C
:102EA000A8060AD5B00608D521686FF02000086191
:102EB0002046BDE8F041FFF7E3BEBDE8F081704772
:102EC0007047000000680349884201D1FDF7F4BE55
:102ED0007047000000100040704730B590F8841033
:102EE000012918D0012280F884202421C0F88810FC
:102EF0000022202401680B680D6823F0005325F0A0
:102F000001050D60426601680B60C0F8884080F8DA
:102F10008420104630BD022030BD70B5044690F8C4
:102F2000840001281DD0012284F884202420C4F8C4
:102F3000880020680568026822F0010202602068AB
:102F4000826822F060620A438260204600F064FEDC
:102F50002268202100201560C4F8881084F88400BD
:102F600070BD022070BD70B5044690F88400012841
:102F70001DD0012284F884202420C4F88800206811
:102F80000568026822F0010202602068826822F06F
:102F900060420A438260204600F03EFE2268202103
:102FA00000201560C4F8881084F8840070BD0220E9
:102FB00070BD10B5040003D0D4F8880010B107E04C
:102FC000012010BD002084F88400204600F026F87F
:102FD0002420C4F888002068016821F00101016004
:102FE000A06A10B1204600F039FE204600F01AFF1A
:102FF0000128E6D02068416821F4904141602068B2
:10300000816821F02A0181602068016841F0010196
:1030100001602046BDE8104000F084BE10B5B6B097
:103020000446142130A8FDF78FF9C0216846FDF74A
:103030008BF91949206888422BD100201F9001216B
:103040000446CDE900106846FEF7CEF808B1FDF75A
:103050008FFA1248016841F010010160006800F029
:10306000100035900D481038016841F002010160F0
:10307000006830AB022100F0020035904FF4404070
:10308000042283E81300064830A9CDE93342FDF756
:1030900091FA36B010BD000000100140F044025813
:1030A000000402582DE9F84F0446D0F888009846ED
:1030B00015460E46202802D00220BDE8F88F96B3B0
:1030C0008DB300214FF02109C4F89010C4F8889006
:1030D0001834FDF795FB824654F8100CA587E58758
:1030E000183CB0F5805F01D1206910B1354600264B
:1030F00000E000255FF02007B4F8560053464FF07B
:103100000002CDF80080E0B18021204601F060F897
:10311000E0B955B115F8010B21688862D4F8881020
:1031200039EA010007D00120C7E736F8020B216811
:10313000C0F30800F1E7B4F85600401EA4F85600AA
:10314000DAE74021204601F043F818B1C4F888704E
:103150000320B2E7C4F888700020AEE7FEE70168FC
:103160008A69D243920701D400228A620068816989
:10317000C943C90703D0816941F0010181617047EA
:103180002DE9F047044600680026894617464FF0AF
:10319000200835468169C90641D51021C1612FE05B
:1031A000B9F1FF3F2CD0FDF72BFBC11B494502D8DD
:1031B000B9F1000F24D12068426894F84210836965
:1031C00002F48042DB431B0415D4B2F5804F12D0C9
:1031D000202910D0416841F480414160FDF710FB87
:1031E000074608E0FDF70CFBC01B192803D9012690
:1031F00045F0200504E020688069C0438006F1D4D2
:1032000020688069C043800602D5002EC8D003E044
:1032100016B92168C1F81C80012645F00405216813
:103220008869C20505D54FF48072CA6145F0010571
:10323000012641050AD5216880054FF4806245F0DA
:103240000805CA614FF0010602D40AE0800507D5DF
:10325000206801264FF4007145F00205C16100E0CD
:103260008EB12046FFF77BFF20680021074F43689F
:103270003B404360606C2843606484F8418084F87C
:10328000421084F840103046BDE8F08700E800FEA8
:103290002DE9F843174604461548DAB2DDE90898E7
:1032A0001E4600900023204600F056F8424649464C
:1032B000204600F0D3F8B8B9012EFDB208D020683E
:1032C000390A816242464946204600F0C7F858B99B
:1032D00020688562002240214B462046CDF80080C0
:1032E00000F052F8002800D00120BDE8F88300006B
:1032F000002000802DE9F8430446164817461E4674
:10330000DAB20090C3022046DDE9089800F024F804
:1033100042464946204600F0A1F8B8B9012EFDB258
:1033200008D02068390A816242464946204600F0AA
:1033300095F858B920688562002280214B462046C6
:10334000CDF8008000F020F8002800D00120BDE872
:10335000F88300000020008070B50068C1F3090107
:1033600041EA0241074D049C19434FF480664268CC
:10337000214306EA54532B439A4321F000410A4368
:10338000426070BDFF63FF032DE9F0411D46174603
:103390000E460446DDF8188028E0424629462046BD
:1033A000FFF7EEFE10B10120BDE8F081681C1DD0D2
:1033B000FDF726FAA0EB0800A84200D8B5B92068AE
:1033C000806936EA00000FD00020B8420ED1626C4E
:1033D000002084F84000202142F02002626484F83A
:1033E000411084F84200DEE70120EEE720688069A2
:1033F00036EA000004D00020B842CED00020D3E747
:103400000120F9E770B516460D4604461FE0324626
:1034100029462046FFF7B4FE08B1012070BDFDF734
:10342000EFF9801BA84200D88DB920688069C0439D
:1034300080060CD5626C002084F84000202142F008
:103440002002626484F8411084F84200E5E72068B5
:103450008069C0438006DAD4002070BD70B516467E
:103460000D46044621E0324629462046FFF788FEF5
:1034700008B1012070BD681C17D0FDF7C1F9801B91
:10348000A84200D88DB920688069C04380070CD558
:10349000626C002084F84000202142F02002626427
:1034A00084F8411084F84200E3E720688069C04353
:1034B0008007D8D4002070BD30B587B0142168468D
:1034C000FCF742FF1648016841F080010160016885
:1034D00001F080010591016841F00101016001687E
:1034E00001F001010591016841F0020101600068ED
:1034F0004FF4C0440B4D012200F00200214605901C
:103500002846FDF771F901AB009401200021032248
:1035100083E8070069462846FDF74CF807B030BD40
:10352000E0440258001C02581348002110B5114C09
:103530000123124A0460C0E90121C0E9033141615D
:103540008161C1610162FDF7B7F908B1FDF710F8BB
:1035500009480021FDF75AF908B1FDF709F80648B6
:103560000021FDF77FF9002803D0BDE81040FCF7EB
:10357000FFBF10BD005400402C000024DB3FB00012
:103580002DE9F04117484FF48007DFF854C00021BF
:10359000FA000726C0F800C04FF0A043C0E903625C
:1035A000C0E90171C0E907314162551054008162E0
:1035B0005201C162C0E90D21C163016441648164AB
:1035C000C164016541658165C0E90554FEF7E2FF0C
:1035D000002803D0BDE8F041FCF7CABFBDE8F08188
:1035E00000300140800000241848002110B5164C1E
:1035F0000C224FF4E1330460C0E90131C160C0E93D
:1036000004128161C161016241628162FFF7D1FCF4
:1036100008B1FCF7ADFF0D480021FFF7A4FC08B18D
:10362000FCF7A6FF09480021FFF777FC08B1FCF77B
:103630009FFF0648FFF751FC002803D0BDE810406B
:10364000FCF796BF10BD00000010014008010024E7
:10365000FEE7FEE7704700002DE9F047454D0446C0
:1036600089464FF0000A2868C04380070AD0414EBF
:10367000283E306820F080603060FDF7C1F80746D2
:10368000B04608E00120BDE8F08700BFFDF7B8F8BC
:10369000C01B022867D8D8F800000001F6D42068C3
:1036A00029684FF4FE0721F47C313E0241EA0030E4
:1036B0002860207AA389B4F804C040022D4D2D491A
:1036C0005B1E227CACF1010C1035091DA0F50070C9
:1036D00080B2521ECCF3080C07EA034340EA0C0008
:1036E000184306EA0262104328600868626920F005
:1036F000C000104308600A68A06922F0200202435B
:103700000A60281D0A6822F010020A6002684FF65B
:10371000F873E4699A4342EAC40202600868B9F1A6
:10372000000F40F010020A6011D00868B9F1010FD3
:1037300011D040F400100860D8F80000444640F072
:103740008060C8F80000FDF75BF805460DE00868EA
:1037500040F40020EFE740F48010ECE7FDF750F86C
:10376000401B022801D903208DE720680001F5D510
:10377000504688E7284402582DE9F047454D044655
:1037800089464FF0000A2868C04380070AD0414E9E
:10379000283E306820F080503060FDF731F8074651
:1037A000B04608E00120BDE8F08700BFFDF728F82B
:1037B000C01B022867D8D8F800008000F6D4208803
:1037C00029684FF4FE0721F07C713E0241EA005067
:1037D0002860207AA389B4F804C040022D4D2D49F9
:1037E0005B1E227CACF1010C1835091DA0F50070A0
:1037F00080B2521ECCF3080C07EA034340EA0C00E7
:10380000184306EA0262104328600868626920F4DF
:103810004060104308600A68A06922F40072024305
:103820000A60281D0A6822F480720A6002684FF656
:10383000F873E4699A4342EAC40202600868B9F185
:10384000000F40F480720A6011D00868B9F1010FCE
:1038500011D040F080700860D8F80000444640F075
:103860008050C8F80000FCF7CBFF05460DE0086863
:1038700040F48000EFE740F40000ECE7FCF7C0FF05
:10388000401B022801D903208DE720688000F5D570
:10389000504688E72844025810B5026840F26F335A
:1038A0005169946944F0080494610268946944F091
:1038B000100494610268146824F001041460026822
:1038C00014699C4314610268936823F44043936035
:1038D00090F88120042A0CD08A060AD5D0F88420DA
:1038E00042F08002C0F884200268936943F020030C
:1038F000936190F88120032A0CD04A060AD5D0F8AB
:10390000842042F00402C0F884200268936943F0E6
:10391000400393618A050AD5D0F8842042F0010261
:10392000C0F884200268936943F400739361C90569
:103930000AD5D0F8841041F00801C0F8841001685D
:103940008A6942F480728A610021A0F86210A0F8AE
:103950006A1010BD2DE9F0411C4616460D4607467B
:10396000DDF818800AE000BFFCF74AFFA0EB080072
:10397000A04202D3601C01D00BE054B1386840690A
:1039800035EA000007D00020B042EDD00020BDE8AD
:10399000F0810320FBE70120F6E770477047000045
:1039A00070B59CB04C216846FCF7CEFC202113A8D2
:1039B000FCF7CAFC0220FDF797FA214800242149B0
:1039C000026842F44042026002680A6842F0010262
:1039D0000A60096801F001011B9101688904FCD5A6
:1039E0000DF1280C022009900521C0268CE8430027
:1039F000CDE90D01C3030F900825684601221294FA
:103A0000CDE91054CDE90023FEF702FB08B172B6F0
:103A1000FEE740201A903F210301CDE91650032212
:103A2000CDE9180313AB13A883E816000421FEF7B1
:103A3000B1F8002801D072B6FEE71CB070BD0000DE
:103A4000184802582C0400583348F0B5334A01682E
:103A500041F470010160106800F00F00072804D2E3
:103A6000106820F00F00C01D10602D4900202C4C64
:103A700010340B682B4D43F001030B6020600B6882
:103A80002B400B60136803F00F03072B04D9136856
:103A900023F00F03DB1D1360214C234A1834234B02
:103AA000261D371D20601E4C214D28343060261DF8
:103AB0003860371D23603B1D35601C1D3A60251D95
:103AC0002E1D1860331D22602860326018600A685D
:103AD000134B184C22F4802260330A60186020686F
:103AE0006FF30F00B0F1005F03D213490120C1F85A
:103AF00008010B48D4300168C9040BD4026843F2B2
:103B0000D2010E4B42F4805202601960016821F428
:103B100080510160F0BD000088ED00E000200052FF
:103B2000004402587FEDF6EA800201010002020221
:103B30000000FF010010005C0080005100400052B6
:103B40000148FFF718B900009C0100242DE9F04757
:103B5000294B4FF0804A294D02689842284E294F40
:103B6000294C09D0504507D0A84205D0B04203D017
:103B7000B84201D0A04205D1D1F804C022F07002B1
:103B80004CEA0202DFF884C0DFF884809842DFF854
:103B900084900FD050450DD0A8420BD0B04209D030
:103BA000B84207D0A04205D0604503D0404501D0BF
:103BB000484503D1CD6822F440722A438E684D698E
:103BC00022F08002C6620E682A439842866207D0BD
:103BD000A04205D0604503D0404501D0484501D101
:103BE000096901630368012143F004030360416133
:103BF0000260BDE8F08700000000014000040040C2
:103C000000080040000C004000040140004001405A
:103C1000004401400048014030B5416EB9B101682F
:103C20000D4B03F108048A688968C2F34262490FA8
:103C30005D5C615C2D01B5FBF1F1A0F86A10995C47
:103C4000A25C0901B1FBF2F1A0F8681030BD0121BE
:103C5000A0F86A10F8E70000244B000890F828103C
:103C6000090706D50168836B4A6822F400421A43AB
:103C70004A6090F82810C90706D00168C36A4A68EC
:103C800022F400321A434A6090F82810890706D5BA
:103C90000168036B4A6822F480321A434A6090F844
:103CA0002810490706D50168436B4A6822F4802230
:103CB0001A434A6090F82810C90606D50168C36BFC
:103CC0008A6822F480521A438A6090F82810890684
:103CD00006D50168036C8A6822F400521A438A6090
:103CE00090F82810490611D50168436C4A6822F4FF
:103CF00080121A434A60416CB1F5801F06D10168F9
:103D0000836C4A6822F4C0021A434A6090F8281073
:103D1000090606D50168C26C486820F400201043EB
:103D2000486070472DE9F84300250446C0F89050DC
:103D3000FCF766FD8046206820266FF07E4700680D
:103D4000000713D50022434631042046009700F0B7
:103D50003FFA58B1216851E8000F20F0800041E897
:103D60000002002AF6D1C4F8886021E020680068CB
:103D7000400722D5002243464FF480012046009799
:103D800000F026FAC8B1206850E8001F21F49071B5
:103D900040E80012002AF6D12068083050E8001FE1
:103DA00021F0010140E80012002AF5D1C4F88C602E
:103DB000032084F88450BDE8F883C4F88860C4F810
:103DC0008C60E5662567002084F88450F3E70000E6
:103DD00010B5026852E8001F21F4907142E8001308
:103DE000002BF6D10E4B0268083252E8001F194032
:103DF00042E80014002CF6D1C16E012908D10268F6
:103E000052E8001F21F0100142E80013002BF6D108
:103E100000212022C0F88C20C166416710BD00003F
:103E2000FEFFFFEF2DE9F04304468068D84E87B0CF
:103E3000D84B2168D4E90427D4F81CC010430A6881
:103E4000002547EA0C073843324002430A602068E5
:103E5000E268416821F44051114341602268A16940
:103E60009A4201D0206A01439768DFF82CC3CB4EF9
:103E7000CB4807EA0C070F4397602168676ACA6A54
:103E800022F00F023A43CA622268B2420ED10068A1
:103E900000F03800182873D047DCB8B3082879D070
:103EA00010286FD178E028287ED17BE0BD498A4276
:103EB00009D1006800F00700062875D2DFE800F09D
:103EC000546A6C6E7072B8498A4209D1006800F079
:103ED0000700062868D2DFE800F0475D5F61636590
:103EE000B2498A4209D1006800F0070006285BD277
:103EF000DFE800F03A5052545658AD498A420BD18F
:103F0000006800F0070006284ED200E010E0DFE86D
:103F100000F02B4143454749A6498A420AD100682F
:103F200000F03800182839D0B7DD2028BBD13CE09C
:103F300001203AE0A0498A4209D1006800F0070058
:103F4000062831D2DFE800F01026282A2C2E9B49C3
:103F50008A420BD1006800F00700062824D2DFE86F
:103F600000F003191B1D1F2100201EE09A421BD1E7
:103F70008B48001D006800F00700062814D202E0FC
:103F80000CE007E010E0DFE800F0030507090B0D87
:103F900002200AE0042008E0082006E0102004E0E7
:103FA000202002E0402000E080208549DFF81482D4
:103FB0009A42854A4FF400434FEA21174FF000061A
:103FC0004ED110281AD006DC022809D004280BD0C4
:103FD00008287CD10DE020283ED0402877D13DE054
:103FE000FCF7ACFF014610E06846FCF7B9FF019909
:103FF0000BE003A8FDF756F8049906E01068800668
:1040000005D51068C0F3C100C140002970D0606AB6
:10401000676838F8102007EB4703B1FBF2F08342E2
:1040200055D8B0EB073F52D8002308461946FCF795
:1040300053F902467808130E120243EA01211018C0
:104040003A4671410023FCF747F9604AA0F54071F8
:1040500091423CD821688FE03946D8E71946D6E727
:10406000D4F81CC04FF6EF799C4546D1082819D0EA
:1040700005DC58B101280CD0042875D10DE01028BA
:1040800015D0202835D040286ED134E0FDF700FF50
:1040900001E0FDF70FFF014610E06846FCF760FF06
:1040A00001990BE003A8FCF7FDFF049906E01068F6
:1040B000800604D51068C0F3C100C140C1B1636A75
:1040C000606838F81330B1FBF3F1490000E04BE0D1
:1040D00001EB5001B1FBF0F0A0F11001494543D8CC
:1040E0004FF6F0732168C0F342021840104343E0DA
:1040F00043E03946E3E71946E1E7082819D005DC33
:1041000058B101280CD004282ED10DE0102815D06C
:1041100020282BD0402827D12AE0FDF7B9FE01E066
:10412000FDF7C8FE014610E06846FCF719FF01994B
:104130000BE003A8FCF7B6FF049906E010688006C0
:1041400004D51068C0F3C100C140B1B1636A6068B2
:1041500038F81330B1FBF3F101EB5001B1FBF0F093
:10416000A0F11001494505D9012506E03946EDE7E2
:104170001946EBE7216880B2C8600120A4F86A0004
:10418000A4F8680028466667A66707B0BDE8F08314
:10419000F369FFCF000C0058FFF4FF11001001403D
:1041A000544402580044004000480040004C004085
:1041B000005000400014014000780040007C0040A6
:1041C0000090D0030C4B000800440258FFFC0F0085
:1041D0002DE9F047994617460D460446089E4FF0D4
:1041E000000833E0701C31D0FCF70AFBA0EB09009B
:1041F000B04218D8BEB120680168490726D5802D85
:1042000024D0402D22D0C169C94309070DD4082507
:1042100005622046FFF7DCFDC4F89050012084F8C9
:104220008480BDE8F0870320FBE7C069C043000538
:104230000CD421684FF4006008622046FFF7C8FDE7
:104240002021C4F8901084F88480ECE72068C069CD
:1042500035EA000004D00020B842C3D00020E0E7D7
:104260000120F9E7FEE700000FB4054B10B503A9E4
:10427000044A029800F028F810BC5DF814FB000016
:104280002D47000828000024090700284FEA116183
:1042900004DB00F1E02080F80014704700F00F000C
:1042A00000F1E02080F8141D704702E008C8121FDA
:1042B00008C1002AFAD170477047002001E001C10F
:1042C000121F002AFBD170472DE9FF4F8DB00F461A
:1042D0000546002606E025280BD0DDE90F129047A1
:1042E0006D1C761C28780028F5D111B03046BDE849
:1042F000F08F0024A246A1460122EC4900E00443CD
:1043000015F8013F203B02FA03F00842F7D1287864
:104310002A2810D06FF02F022878A0F13001092947
:1043200014D80AEB8A0102EB410144F0020400EBCD
:10433000010A6D1CF0E701CF5FEA000A03D544F4DF
:104340000054CAF1000A44F002046D1C28782E289B
:1043500017D115F8010F44F004042A280ED06FF08D
:104360002F022878A0F1300109290AD809EB890128
:1043700002EB410100EB01096D1CF2E757F8049BC9
:104380006D1C28786C280FD006DC4C2817D06828C4
:104390000DD06A2814D104E0742810D07A280FD1E7
:1043A0000DE044F400140AE044F4801401E044F405
:1043B00040146978814202D104F580146D1C6D1C93
:1043C0002A786E2A1FD00CDC632A31D004DC002A44
:1043D0008BD0582A11D1A3E0642A68D0692A0CD165
:1043E00065E0732A2ED004DC6F2A73D0702A04D1C2
:1043F0009BE0752A6FD0782A6ED01046DDE90F1247
:104400009047761C50E1C4F30250022806D00328DE
:1044100009D0042801CF09D0066045E101CFF1178A
:10442000C0E9006140E101CF06803DE106703BE15B
:1044300017F8040B8DF8000000208DF80100EB4602
:10444000012003E057F804BB4FF0FF3061074FF045
:10445000000102D40DE008F10101884649450FDA58
:104460008045F8DB1BF808100029F4D108E008F1BA
:10447000010188468142FADB1BF808100029F6D1B9
:10448000DDE90F23AAEB08008146214600F036F94A
:10449000304400EB080604E0DDE90F121BF8010BC5
:1044A0009047B8F10108F7D221464846F7E00A21C3
:1044B000C4F302534FF0000B0891022B04D001CF3C
:1044C000C117032B09D00AE0FF1D27F00707F7E803
:1044D000020108E032E01FE020E000B2C117042B27
:1044E00001D140B2C117031E71F1000307DA4FF08A
:1044F000000CD0EB0C006CEB01012D2302E0230536
:1045000004D52B238DF82430012303E0E30701D0E9
:104510002023F7E7984658E00A2110E010210EE02A
:1045200010204FF0000B08900CE010214FF0000B12
:1045300044F004044FF00809089103E008214FF00B
:10454000000B0891C4F30253022B04D001CF0021C9
:10455000032B06D006E0FF1D27F00707F7E802014E
:1045600003E080B2042B00D1C0B24FF00008230753
:104570002BD5702A07D0DDF820C08CF0100C5CEA37
:104580000B0C05D00EE040238DF82430012308E009
:1045900050EA010306D030238DF824308DF8252011
:1045A00002239846DDF820C08CF0080C5CEA0B0C66
:1045B0000BD150EA010301D1630706D530238DF8F2
:1045C00024304FF00108A9F10109582A04D038A27B
:1045D0000B9208AA0A920BE03AA2F9E75B46089A06
:1045E000FBF77AFE0B9B9B5C0A9A521E0A92137091
:1045F00050EA0102F2D10A98ADEB000000F1200B65
:10460000600702D524F4803401E04FF00109D94558
:1046100002DDA9EB0B0000E0002000EB0B014144A0
:104620000890AAEB010AE00306D4DDE90F23214636
:10463000504600F063F806444FF0000908E009A96D
:1046400011F80900DDE90F12904709F10109761C04
:10465000C145F4DBE0030CD5DDE90F2321465046CC
:1046600000F04CF8064404E0DDE90F1230209047DA
:10467000761C0899481E08900029F5DC08E00A9885
:104680000A990078491C0A91DDE90F129047761CBF
:10469000BBF10001ABF1010BF1DC21465046DDE935
:1046A0000F2300F019F806446D1C1BE609280100D1
:1046B0003031323334353637383961626364656698
:1046C000000000003031323334353637383941425A
:1046D00043444546000000002DE9F0410446002512
:1046E0001E461746880404D405E039462020B0470A
:1046F0006D1C641EF9D52846BDE8F0812DE9F04116
:10470000044600251E469046C80301D5302700E028
:104710002027880404D505E041463846B0476D1C83
:10472000641EF9D52846BDE8F081000013B50448A1
:1047300001224FF0FF336946FEF7B4FC00981CBD20
:10474000080100242DED088B88B00024009401940A
:1047500002940394FCF75AFB01208DF80C001F21F2
:104760008DF8081087228DF809208DF80D008DF83E
:10477000000068468DF80A408DF80E408DF8014023
:1047800001948DF80B408DF80F40FCF711FB0420CD
:10479000FCF74AFBB4490868800311D4BFF34F8F7C
:1047A000BFF36F8FB1480460BFF34F8FBFF36F8FBC
:1047B000086840F400300860BFF34F8FBFF36F8F7D
:1047C0000868C00324D4A84870300460BFF34F8F3A
:1047D000001F43F6FF760068A44D1035C0F34E323B
:1047E000C0F3C90306EA4217184600BF47EA807CB7
:1047F000C5F800C0401EF9D2521EF3D2BFF34F8F4E
:10480000086840F480300860BFF34F8FBFF36F8FAC
:10481000FCF75AFAFFF7C4F8FEF74EFEFEF784FEE7
:10482000FEF7AEFEFEF7E0FE914DB6238DF8184080
:104830007E228DF81C404FF4005421462846FBF799
:1048400019FE3220FBF7A4FE3220FBF7A1FE012265
:10485000002006A9FBF7B4FD0122002007A9FBF701
:10486000DFFD9DF8181083A0FFF7FEFC9DF81C10DB
:104870008AA0FFF7F9FC042321467D222846FBF796
:10488000F9FD0A20FBF784FE002321467C222846FE
:10489000FBF7F0FD3220FBF77BFEA82321464022E8
:1048A0002846FBF7E7FD3220FBF772FE022328467D
:1048B0000F225C032146FBF7DDFD07232146102272
:1048C0002846FBF7D7FDFBF7F1FD814809227DA1C2
:1048D0004FF47A73FEF7E6FBA3467E4C04F106091B
:1048E0009FED7D8AB1EE089ADFED7C8ADFED7C9A40
:1048F0004FF4805A04F10C08764906221220FBF787
:104900005FFD20786178A278E5782379667940EABE
:1049100001210FB242EA052043EA06210DB26D499A
:1049200006B20622891D0220FBF77AFD99F80010D5
:1049300000EE107A01EE106A00EE905A99F801200C
:1049400099F8023099F8036099F8045099F8050035
:1049500041EA0221B8EEC00AF8EEC11A09B2F8EE37
:10496000E00A20EE081A00EE101A43EA062245EA91
:104970000023F8EEC02A10B220EE882A00EE900A3A
:1049800019B200EE101AF8EEE00A61EE881A21EE74
:10499000091AB8EEC03A20EE880A61EE891A62EE72
:1049A000882A63EE080A21EE281A22EE092A20EE50
:1049B000293A61EEA81A62EEA92A60EEA93ABDEE84
:1049C000C10A22EE282AFDEEE10A10EE107A62EE0C
:1049D000A82A63EE281A23EEA80ABDEEC21A3D49A2
:1049E000082242200C3110EE906A11EE105ABDEEF2
:1049F000E2BABDEEE1AAFDEEC0AAFBF797FD98F979
:104A00000110404698F80020490141EAD20252457F
:104A100001DBA2F5005290F9031090F802C04901A1
:104A200041EADC01514501DBA1F5005190F9053067
:104A30000079DB0143EA5000584502DBA0F5004055
:104A400000B22B46CDED02AA03923246CDE9041006
:104A50008DED00BA8DED01AA22A03946FFF704FCC6
:104A60000A20FBF795FD47E714ED00E050EF00E06A
:104A7000001C0258424D49303838204163632049B8
:104A8000443A2030782530325820284578706563C4
:104A9000742030783145290A00000000424D493029
:104AA0003838204779726F2049443A2030782530D1
:104AB0003258202845787065637420307830462954
:104AC0000A00000055415254204F4B0D0A000000CF
:104AD00008010024000000240000003800007A448F
:104AE0000000FA43444154413A256C642C256C641F
:104AF0002C256C642C256C642C256C642C256C6432
:104B00002C25642C25642C25640D0A00010002006C
:104B10000400060008000A000C00100020004000FD
:104B200080000001010101030701000008040204E4
:104B30000801010100000000010203040102030456
:104B400006070809644B0008000000242C00000040
:104B5000AA420008904B00082C000024BC0500006D
:104B6000BA42000800000000000000000000000041
:104B70000000000000000000010000001000000024
:104B8000000000000090D0030090D003000000005F
:040000050800029954
:00000001FF
